{"abi":[{"inputs":[{"internalType":"contract INonfungiblePositionManager","name":"positionManager_","type":"address"},{"internalType":"contract INFTOracle","name":"oracle_","type":"address"},{"internalType":"address","name":"treasury_","type":"address"},{"internalType":"address","name":"token_","type":"address"}],"stateMutability":"nonpayable","type":"constructor"},{"inputs":[],"name":"AddressZero","type":"error"},{"inputs":[],"name":"AllowList","type":"error"},{"inputs":[],"name":"CollateralUnderflow","type":"error"},{"inputs":[],"name":"DebtLimitExceeded","type":"error"},{"inputs":[],"name":"Forbidden","type":"error"},{"inputs":[],"name":"Initialized","type":"error"},{"inputs":[],"name":"InvalidPool","type":"error"},{"inputs":[],"name":"InvalidValue","type":"error"},{"inputs":[],"name":"InvalidVault","type":"error"},{"inputs":[],"name":"NFTLimitExceeded","type":"error"},{"inputs":[],"name":"Paused","type":"error"},{"inputs":[],"name":"PositionHealthy","type":"error"},{"inputs":[],"name":"PositionUnhealthy","type":"error"},{"inputs":[],"name":"TickDeviation","type":"error"},{"inputs":[],"name":"UnpaidDebt","type":"error"},{"inputs":[],"name":"ValueZero","type":"error"},{"inputs":[],"name":"VaultRegistryAlreadySet","type":"error"},{"anonymous":false,"inputs":[{"indexed":true,"internalType":"address","name":"sender","type":"address"},{"indexed":false,"internalType":"uint256","name":"vaultId","type":"uint256"},{"indexed":false,"internalType":"uint256","name":"tokenId","type":"uint256"}],"name":"CollateralDeposited","type":"event"},{"anonymous":false,"inputs":[{"indexed":true,"internalType":"address","name":"sender","type":"address"},{"indexed":false,"internalType":"uint256","name":"vaultId","type":"uint256"},{"indexed":false,"internalType":"uint256","name":"tokenId","type":"uint256"}],"name":"CollateralWithdrew","type":"event"},{"anonymous":false,"inputs":[{"indexed":true,"internalType":"address","name":"sender","type":"address"},{"indexed":false,"internalType":"uint256","name":"vaultId","type":"uint256"},{"indexed":false,"internalType":"uint256","name":"amount","type":"uint256"}],"name":"DebtBurned","type":"event"},{"anonymous":false,"inputs":[{"indexed":true,"internalType":"address","name":"sender","type":"address"},{"indexed":false,"internalType":"uint256","name":"vaultId","type":"uint256"},{"indexed":false,"internalType":"uint256","name":"amount","type":"uint256"}],"name":"DebtMinted","type":"event"},{"anonymous":false,"inputs":[{"indexed":true,"internalType":"address","name":"origin","type":"address"},{"indexed":true,"internalType":"address","name":"sender","type":"address"},{"indexed":false,"internalType":"uint32","name":"liquidationFeeD","type":"uint32"}],"name":"LiquidationFeeChanged","type":"event"},{"anonymous":false,"inputs":[{"indexed":true,"internalType":"address","name":"origin","type":"address"},{"indexed":true,"internalType":"address","name":"sender","type":"address"},{"indexed":false,"internalType":"uint32","name":"liquidationPremiumD","type":"uint32"}],"name":"LiquidationPremiumChanged","type":"event"},{"anonymous":false,"inputs":[{"indexed":true,"internalType":"address","name":"origin","type":"address"},{"indexed":true,"internalType":"address","name":"sender","type":"address"},{"indexed":false,"internalType":"address","name":"pool","type":"address"},{"indexed":false,"internalType":"uint256","name":"liquidationThresholdD_","type":"uint256"}],"name":"LiquidationThresholdSet","type":"event"},{"anonymous":false,"inputs":[{"indexed":true,"internalType":"address","name":"origin","type":"address"},{"indexed":true,"internalType":"address","name":"sender","type":"address"},{"indexed":false,"internalType":"uint256","name":"maxDebtPerVault","type":"uint256"}],"name":"MaxDebtPerVaultChanged","type":"event"},{"anonymous":false,"inputs":[{"indexed":true,"internalType":"address","name":"origin","type":"address"},{"indexed":true,"internalType":"address","name":"sender","type":"address"},{"indexed":false,"internalType":"uint8","name":"maxNftsPerVault","type":"uint8"}],"name":"MaxNftsPerVaultChanged","type":"event"},{"anonymous":false,"inputs":[{"indexed":true,"internalType":"address","name":"origin","type":"address"},{"indexed":true,"internalType":"address","name":"sender","type":"address"},{"indexed":false,"internalType":"uint256","name":"minSingleNftCollateral","type":"uint256"}],"name":"MinSingleNftCollateralChanged","type":"event"},{"anonymous":false,"inputs":[{"indexed":true,"internalType":"bytes32","name":"role","type":"bytes32"},{"indexed":true,"internalType":"bytes32","name":"previousAdminRole","type":"bytes32"},{"indexed":true,"internalType":"bytes32","name":"newAdminRole","type":"bytes32"}],"name":"RoleAdminChanged","type":"event"},{"anonymous":false,"inputs":[{"indexed":true,"internalType":"bytes32","name":"role","type":"bytes32"},{"indexed":true,"internalType":"address","name":"account","type":"address"},{"indexed":true,"internalType":"address","name":"sender","type":"address"}],"name":"RoleGranted","type":"event"},{"anonymous":false,"inputs":[{"indexed":true,"internalType":"bytes32","name":"role","type":"bytes32"},{"indexed":true,"internalType":"address","name":"account","type":"address"},{"indexed":true,"internalType":"address","name":"sender","type":"address"}],"name":"RoleRevoked","type":"event"},{"anonymous":false,"inputs":[{"indexed":true,"internalType":"address","name":"origin","type":"address"},{"indexed":true,"internalType":"address","name":"sender","type":"address"},{"indexed":false,"internalType":"uint256","name":"stabilisationFee","type":"uint256"}],"name":"StabilisationFeeUpdated","type":"event"},{"anonymous":false,"inputs":[{"indexed":true,"internalType":"address","name":"origin","type":"address"},{"indexed":true,"internalType":"address","name":"sender","type":"address"}],"name":"SystemPaused","type":"event"},{"anonymous":false,"inputs":[{"indexed":true,"internalType":"address","name":"origin","type":"address"},{"indexed":true,"internalType":"address","name":"sender","type":"address"}],"name":"SystemPrivate","type":"event"},{"anonymous":false,"inputs":[{"indexed":true,"internalType":"address","name":"origin","type":"address"},{"indexed":true,"internalType":"address","name":"sender","type":"address"}],"name":"SystemPublic","type":"event"},{"anonymous":false,"inputs":[{"indexed":true,"internalType":"address","name":"origin","type":"address"},{"indexed":true,"internalType":"address","name":"sender","type":"address"}],"name":"SystemUnpaused","type":"event"},{"anonymous":false,"inputs":[{"indexed":true,"internalType":"address","name":"sender","type":"address"},{"indexed":false,"internalType":"uint256","name":"vaultId","type":"uint256"}],"name":"VaultClosed","type":"event"},{"anonymous":false,"inputs":[{"indexed":true,"internalType":"address","name":"sender","type":"address"},{"indexed":false,"internalType":"uint256","name":"vaultId","type":"uint256"}],"name":"VaultLiquidated","type":"event"},{"anonymous":false,"inputs":[{"indexed":true,"internalType":"address","name":"sender","type":"address"},{"indexed":false,"internalType":"uint256","name":"vaultId","type":"uint256"}],"name":"VaultOpened","type":"event"},{"anonymous":false,"inputs":[{"indexed":true,"internalType":"address","name":"origin","type":"address"},{"indexed":true,"internalType":"address","name":"sender","type":"address"},{"indexed":false,"internalType":"address","name":"vaultRegistryAddress","type":"address"}],"name":"VaultRegistrySet","type":"event"},{"anonymous":false,"inputs":[{"indexed":true,"internalType":"address","name":"origin","type":"address"},{"indexed":true,"internalType":"address","name":"sender","type":"address"},{"indexed":false,"internalType":"address","name":"pool","type":"address"}],"name":"WhitelistedPoolRevoked","type":"event"},{"anonymous":false,"inputs":[{"indexed":true,"internalType":"address","name":"origin","type":"address"},{"indexed":true,"internalType":"address","name":"sender","type":"address"},{"indexed":false,"internalType":"address","name":"pool","type":"address"}],"name":"WhitelistedPoolSet","type":"event"},{"inputs":[],"name":"ADMIN_DELEGATE_ROLE","outputs":[{"internalType":"bytes32","name":"","type":"bytes32"}],"stateMutability":"view","type":"function"},{"inputs":[],"name":"ADMIN_ROLE","outputs":[{"internalType":"bytes32","name":"","type":"bytes32"}],"stateMutability":"view","type":"function"},{"inputs":[],"name":"DEFAULT_ADMIN_ROLE","outputs":[{"internalType":"bytes32","name":"","type":"bytes32"}],"stateMutability":"view","type":"function"},{"inputs":[],"name":"DENOMINATOR","outputs":[{"internalType":"uint256","name":"","type":"uint256"}],"stateMutability":"view","type":"function"},{"inputs":[],"name":"OPERATOR","outputs":[{"internalType":"bytes32","name":"","type":"bytes32"}],"stateMutability":"view","type":"function"},{"inputs":[],"name":"YEAR","outputs":[{"internalType":"uint256","name":"","type":"uint256"}],"stateMutability":"view","type":"function"},{"inputs":[{"internalType":"address[]","name":"depositors","type":"address[]"}],"name":"addDepositorsToAllowlist","outputs":[],"stateMutability":"nonpayable","type":"function"},{"inputs":[{"internalType":"uint256","name":"vaultId","type":"uint256"},{"internalType":"uint256","name":"amount","type":"uint256"}],"name":"burnDebt","outputs":[],"stateMutability":"nonpayable","type":"function"},{"inputs":[{"internalType":"uint256","name":"vaultId","type":"uint256"}],"name":"calculateVaultCollateral","outputs":[{"internalType":"uint256","name":"overallCollateral","type":"uint256"},{"internalType":"uint256","name":"adjustedCollateral","type":"uint256"}],"stateMutability":"view","type":"function"},{"inputs":[{"internalType":"uint32","name":"liquidationFeeD","type":"uint32"}],"name":"changeLiquidationFee","outputs":[],"stateMutability":"nonpayable","type":"function"},{"inputs":[{"internalType":"uint32","name":"liquidationPremiumD","type":"uint32"}],"name":"changeLiquidationPremium","outputs":[],"stateMutability":"nonpayable","type":"function"},{"inputs":[{"internalType":"uint256","name":"maxDebtPerVault","type":"uint256"}],"name":"changeMaxDebtPerVault","outputs":[],"stateMutability":"nonpayable","type":"function"},{"inputs":[{"internalType":"uint8","name":"maxNftsPerVault","type":"uint8"}],"name":"changeMaxNftsPerVault","outputs":[],"stateMutability":"nonpayable","type":"function"},{"inputs":[{"internalType":"uint256","name":"minSingleNftCollateral","type":"uint256"}],"name":"changeMinSingleNftCollateral","outputs":[],"stateMutability":"nonpayable","type":"function"},{"inputs":[{"internalType":"uint256","name":"vaultId","type":"uint256"},{"internalType":"address","name":"collateralRecipient","type":"address"}],"name":"closeVault","outputs":[],"stateMutability":"nonpayable","type":"function"},{"inputs":[{"components":[{"internalType":"uint256","name":"tokenId","type":"uint256"},{"internalType":"address","name":"recipient","type":"address"},{"internalType":"uint128","name":"amount0Max","type":"uint128"},{"internalType":"uint128","name":"amount1Max","type":"uint128"}],"internalType":"struct INonfungiblePositionManager.CollectParams","name":"params","type":"tuple"}],"name":"collect","outputs":[{"internalType":"uint256","name":"amount0","type":"uint256"},{"internalType":"uint256","name":"amount1","type":"uint256"}],"stateMutability":"nonpayable","type":"function"},{"inputs":[{"components":[{"internalType":"uint256","name":"tokenId","type":"uint256"},{"internalType":"address","name":"recipient","type":"address"},{"internalType":"uint128","name":"amount0Max","type":"uint128"},{"internalType":"uint128","name":"amount1Max","type":"uint128"}],"internalType":"struct INonfungiblePositionManager.CollectParams","name":"collectParams","type":"tuple"},{"components":[{"internalType":"uint256","name":"tokenId","type":"uint256"},{"internalType":"uint256","name":"amount0Desired","type":"uint256"},{"internalType":"uint256","name":"amount1Desired","type":"uint256"},{"internalType":"uint256","name":"amount0Min","type":"uint256"},{"internalType":"uint256","name":"amount1Min","type":"uint256"},{"internalType":"uint256","name":"deadline","type":"uint256"}],"internalType":"struct INonfungiblePositionManager.IncreaseLiquidityParams","name":"increaseLiquidityParams","type":"tuple"}],"name":"collectAndIncreaseAmount","outputs":[{"internalType":"uint256","name":"depositedLiquidity","type":"uint256"},{"internalType":"uint256","name":"depositedAmount0","type":"uint256"},{"internalType":"uint256","name":"depositedAmount1","type":"uint256"},{"internalType":"uint256","name":"returnAmount0","type":"uint256"},{"internalType":"uint256","name":"returnAmount1","type":"uint256"}],"stateMutability":"nonpayable","type":"function"},{"inputs":[{"components":[{"internalType":"uint256","name":"tokenId","type":"uint256"},{"internalType":"uint128","name":"liquidity","type":"uint128"},{"internalType":"uint256","name":"amount0Min","type":"uint256"},{"internalType":"uint256","name":"amount1Min","type":"uint256"},{"internalType":"uint256","name":"deadline","type":"uint256"}],"internalType":"struct INonfungiblePositionManager.DecreaseLiquidityParams","name":"params","type":"tuple"}],"name":"decreaseLiquidity","outputs":[{"internalType":"uint256","name":"amount0","type":"uint256"},{"internalType":"uint256","name":"amount1","type":"uint256"}],"stateMutability":"nonpayable","type":"function"},{"inputs":[{"internalType":"uint256","name":"vaultId","type":"uint256"},{"internalType":"uint256","name":"nft","type":"uint256"}],"name":"depositCollateral","outputs":[],"stateMutability":"nonpayable","type":"function"},{"inputs":[],"name":"depositorsAllowlist","outputs":[{"internalType":"address[]","name":"","type":"address[]"}],"stateMutability":"view","type":"function"},{"inputs":[{"internalType":"uint256","name":"vaultId","type":"uint256"}],"name":"getOverallDebt","outputs":[{"internalType":"uint256","name":"","type":"uint256"}],"stateMutability":"view","type":"function"},{"inputs":[{"internalType":"bytes32","name":"role","type":"bytes32"}],"name":"getRoleAdmin","outputs":[{"internalType":"bytes32","name":"","type":"bytes32"}],"stateMutability":"view","type":"function"},{"inputs":[{"internalType":"bytes32","name":"role","type":"bytes32"},{"internalType":"uint256","name":"index","type":"uint256"}],"name":"getRoleMember","outputs":[{"internalType":"address","name":"","type":"address"}],"stateMutability":"view","type":"function"},{"inputs":[{"internalType":"bytes32","name":"role","type":"bytes32"}],"name":"getRoleMemberCount","outputs":[{"internalType":"uint256","name":"","type":"uint256"}],"stateMutability":"view","type":"function"},{"inputs":[],"name":"globalStabilisationFeePerUSDD","outputs":[{"internalType":"uint256","name":"","type":"uint256"}],"stateMutability":"view","type":"function"},{"inputs":[],"name":"globalStabilisationFeePerUSDSnapshotD","outputs":[{"internalType":"uint256","name":"","type":"uint256"}],"stateMutability":"view","type":"function"},{"inputs":[],"name":"globalStabilisationFeePerUSDSnapshotTimestamp","outputs":[{"internalType":"uint256","name":"","type":"uint256"}],"stateMutability":"view","type":"function"},{"inputs":[{"internalType":"bytes32","name":"role","type":"bytes32"},{"internalType":"address","name":"account","type":"address"}],"name":"grantRole","outputs":[],"stateMutability":"nonpayable","type":"function"},{"inputs":[{"internalType":"bytes32","name":"role","type":"bytes32"},{"internalType":"address","name":"account","type":"address"}],"name":"hasRole","outputs":[{"internalType":"bool","name":"","type":"bool"}],"stateMutability":"view","type":"function"},{"inputs":[{"internalType":"address","name":"admin","type":"address"},{"internalType":"uint256","name":"stabilisationFee_","type":"uint256"},{"internalType":"uint256","name":"maxDebtPerVault","type":"uint256"}],"name":"initialize","outputs":[],"stateMutability":"nonpayable","type":"function"},{"inputs":[{"internalType":"address","name":"sender","type":"address"}],"name":"isAdmin","outputs":[{"internalType":"bool","name":"","type":"bool"}],"stateMutability":"view","type":"function"},{"inputs":[],"name":"isInitialized","outputs":[{"internalType":"bool","name":"","type":"bool"}],"stateMutability":"view","type":"function"},{"inputs":[{"internalType":"address","name":"sender","type":"address"}],"name":"isOperator","outputs":[{"internalType":"bool","name":"","type":"bool"}],"stateMutability":"view","type":"function"},{"inputs":[],"name":"isPaused","outputs":[{"internalType":"bool","name":"","type":"bool"}],"stateMutability":"view","type":"function"},{"inputs":[{"internalType":"address","name":"pool","type":"address"}],"name":"isPoolWhitelisted","outputs":[{"internalType":"bool","name":"","type":"bool"}],"stateMutability":"view","type":"function"},{"inputs":[],"name":"isPublic","outputs":[{"internalType":"bool","name":"","type":"bool"}],"stateMutability":"view","type":"function"},{"inputs":[{"internalType":"uint256","name":"vaultId","type":"uint256"}],"name":"liquidate","outputs":[],"stateMutability":"nonpayable","type":"function"},{"inputs":[{"internalType":"address","name":"","type":"address"}],"name":"liquidationThresholdD","outputs":[{"internalType":"uint256","name":"","type":"uint256"}],"stateMutability":"view","type":"function"},{"inputs":[],"name":"makePrivate","outputs":[],"stateMutability":"nonpayable","type":"function"},{"inputs":[],"name":"makePublic","outputs":[],"stateMutability":"nonpayable","type":"function"},{"inputs":[{"internalType":"uint256","name":"vaultId","type":"uint256"},{"internalType":"uint256","name":"amount","type":"uint256"}],"name":"mintDebt","outputs":[],"stateMutability":"nonpayable","type":"function"},{"inputs":[{"internalType":"uint256","name":"nft","type":"uint256"},{"internalType":"uint256","name":"amount","type":"uint256"}],"name":"mintDebtFromScratch","outputs":[{"internalType":"uint256","name":"vaultId","type":"uint256"}],"stateMutability":"nonpayable","type":"function"},{"inputs":[{"internalType":"bytes[]","name":"data","type":"bytes[]"}],"name":"multicall","outputs":[{"internalType":"bytes[]","name":"results","type":"bytes[]"}],"stateMutability":"nonpayable","type":"function"},{"inputs":[{"internalType":"address","name":"operator","type":"address"},{"internalType":"address","name":"from","type":"address"},{"internalType":"uint256","name":"tokenId","type":"uint256"},{"internalType":"bytes","name":"data","type":"bytes"}],"name":"onERC721Received","outputs":[{"internalType":"bytes4","name":"","type":"bytes4"}],"stateMutability":"nonpayable","type":"function"},{"inputs":[],"name":"openVault","outputs":[{"internalType":"uint256","name":"vaultId","type":"uint256"}],"stateMutability":"nonpayable","type":"function"},{"inputs":[],"name":"oracle","outputs":[{"internalType":"contract INFTOracle","name":"","type":"address"}],"stateMutability":"view","type":"function"},{"inputs":[],"name":"pause","outputs":[],"stateMutability":"nonpayable","type":"function"},{"inputs":[],"name":"positionManager","outputs":[{"internalType":"contract INonfungiblePositionManager","name":"","type":"address"}],"stateMutability":"view","type":"function"},{"inputs":[],"name":"protocolParams","outputs":[{"components":[{"internalType":"uint256","name":"maxDebtPerVault","type":"uint256"},{"internalType":"uint256","name":"minSingleNftCollateral","type":"uint256"},{"internalType":"uint32","name":"liquidationFeeD","type":"uint32"},{"internalType":"uint32","name":"liquidationPremiumD","type":"uint32"},{"internalType":"uint8","name":"maxNftsPerVault","type":"uint8"}],"internalType":"struct ICDP.ProtocolParams","name":"","type":"tuple"}],"stateMutability":"view","type":"function"},{"inputs":[{"internalType":"address[]","name":"depositors","type":"address[]"}],"name":"removeDepositorsFromAllowlist","outputs":[],"stateMutability":"nonpayable","type":"function"},{"inputs":[{"internalType":"bytes32","name":"role","type":"bytes32"},{"internalType":"address","name":"account","type":"address"}],"name":"renounceRole","outputs":[],"stateMutability":"nonpayable","type":"function"},{"inputs":[{"internalType":"bytes32","name":"role","type":"bytes32"},{"internalType":"address","name":"account","type":"address"}],"name":"revokeRole","outputs":[],"stateMutability":"nonpayable","type":"function"},{"inputs":[{"internalType":"address","name":"pool","type":"address"}],"name":"revokeWhitelistedPool","outputs":[],"stateMutability":"nonpayable","type":"function"},{"inputs":[{"internalType":"address","name":"pool","type":"address"},{"internalType":"uint256","name":"liquidationThresholdD_","type":"uint256"}],"name":"setLiquidationThreshold","outputs":[],"stateMutability":"nonpayable","type":"function"},{"inputs":[{"internalType":"contract IVaultRegistry","name":"vaultRegistry_","type":"address"}],"name":"setVaultRegistry","outputs":[],"stateMutability":"nonpayable","type":"function"},{"inputs":[{"internalType":"address","name":"pool","type":"address"}],"name":"setWhitelistedPool","outputs":[],"stateMutability":"nonpayable","type":"function"},{"inputs":[],"name":"stabilisationFeeRateD","outputs":[{"internalType":"uint256","name":"","type":"uint256"}],"stateMutability":"view","type":"function"},{"inputs":[{"internalType":"uint256","name":"","type":"uint256"}],"name":"stabilisationFeeVaultSnapshot","outputs":[{"internalType":"uint256","name":"","type":"uint256"}],"stateMutability":"view","type":"function"},{"inputs":[{"internalType":"bytes4","name":"interfaceId","type":"bytes4"}],"name":"supportsInterface","outputs":[{"internalType":"bool","name":"","type":"bool"}],"stateMutability":"view","type":"function"},{"inputs":[],"name":"token","outputs":[{"internalType":"contract IBobToken","name":"","type":"address"}],"stateMutability":"view","type":"function"},{"inputs":[],"name":"treasury","outputs":[{"internalType":"address","name":"","type":"address"}],"stateMutability":"view","type":"function"},{"inputs":[],"name":"unpause","outputs":[],"stateMutability":"nonpayable","type":"function"},{"inputs":[{"internalType":"uint256","name":"stabilisationFeeRateD_","type":"uint256"}],"name":"updateStabilisationFeeRate","outputs":[],"stateMutability":"nonpayable","type":"function"},{"inputs":[],"name":"vaultCount","outputs":[{"internalType":"uint256","name":"","type":"uint256"}],"stateMutability":"view","type":"function"},{"inputs":[{"internalType":"uint256","name":"","type":"uint256"}],"name":"vaultDebt","outputs":[{"internalType":"uint256","name":"","type":"uint256"}],"stateMutability":"view","type":"function"},{"inputs":[{"internalType":"uint256","name":"","type":"uint256"}],"name":"vaultIdByNft","outputs":[{"internalType":"uint256","name":"","type":"uint256"}],"stateMutability":"view","type":"function"},{"inputs":[{"internalType":"uint256","name":"vaultId","type":"uint256"}],"name":"vaultNftsById","outputs":[{"internalType":"uint256[]","name":"","type":"uint256[]"}],"stateMutability":"view","type":"function"},{"inputs":[],"name":"vaultRegistry","outputs":[{"internalType":"contract IVaultRegistry","name":"","type":"address"}],"stateMutability":"view","type":"function"},{"inputs":[{"internalType":"uint256","name":"i","type":"uint256"}],"name":"whitelistedPool","outputs":[{"internalType":"address","name":"","type":"address"}],"stateMutability":"view","type":"function"},{"inputs":[{"internalType":"uint256","name":"nft","type":"uint256"}],"name":"withdrawCollateral","outputs":[],"stateMutability":"nonpayable","type":"function"}],"bytecode":{"object":"0x610100604052600060115560006014553480156200001c57600080fd5b5060405162004524380380620045248339810160408190526200003f91620000f1565b6001600160a01b03841615806200005d57506001600160a01b038316155b806200007057506001600160a01b038216155b806200008357506001600160a01b038116155b15620000a257604051639fabe1c160e01b815260040160405180910390fd5b6001600160a01b0393841660805291831660a052821660e0521660c0526002805460ff60a01b1916600160a01b17905562000159565b6001600160a01b0381168114620000ee57600080fd5b50565b600080600080608085870312156200010857600080fd5b84516200011581620000d8565b60208601519094506200012881620000d8565b60408601519093506200013b81620000d8565b60608601519092506200014e81620000d8565b939692955090935050565b60805160a05160c05160e0516142f0620002346000396000818161068e015281816117b901526121d5015260008181610a94015281816115a70152818161163a015281816116f7015281816117e801528181611f5801528181612207015281816122b0015261234301526000818161073101528181610f5e01528181612b800152612e920152600081816106ef01528181610b6801528181610ce201528181610ec7015281816110cf015281816110fe0152818161116a01528181611980015281816127540152818161287a015261308701526142f06000f3fe608060405234801561001057600080fd5b50600436106104125760003560e01c80638482178611610220578063a8406ea311610130578063d547741f116100b8578063e9f43bfe11610087578063e9f43bfe14610a61578063ece1373214610a74578063fc018c0514610a87578063fc0c546a14610a8f578063fc6f786514610ab657600080fd5b8063d547741f14610a07578063dc9a153514610a1a578063e163fb0214610a2e578063e273d23e14610a4e57600080fd5b8063bf183d54116100ff578063bf183d541461099b578063ca15c873146109ae578063cb91dd7b146109c1578063cdd7b38a146109d4578063d310f49b146109e757600080fd5b8063a8406ea314610941578063ac9650d814610954578063ad88de4514610974578063b187bd261461098757600080fd5b806393aab9d5116101b35780639cd16198116101825780639cd16198146108f5578063a09eb0e714610908578063a217fddf1461091d578063a39e4f6d14610925578063a7c6a1001461093857600080fd5b806393aab9d5146107ee57806394bf512d146108ba578063983d2737146108cd5780639b52d8c8146108e257600080fd5b8063918f8674116101ef578063918f8674146107aa57806391b7ab47146107b557806391d14854146107c857806392c796eb146107db57600080fd5b8063848217861461076657806386f547121461076f57806389ea841a146107775780639010d07c1461079757600080fd5b806336568abe116103265780636660bdaf116102ae5780637a1ac61e1161027d5780637a1ac61e146107115780637c84b40c146107245780637dc0d1d01461072c57806383914540146107535780638456cb591461075e57600080fd5b80636660bdaf146106b95780636d70f7ae146106c257806375b238fc146106d5578063791b98bc146106ea57600080fd5b80635412abbc116102f55780635412abbc146106435780635d2bb997146106565780636112fe2e1461067657806361d027b314610689578063624aa232146106b057600080fd5b806336568abe14610601578063392e53cd146106145780633f4ba83a14610628578063415f12401461063057600080fd5b80631c0a5914116103a95780632c357f7f116103785780632c357f7f1461057a5780632d9223691461058d5780632e8dc029146105a05780632f2ff15d146105db57806334ccc93b146105ee57600080fd5b80631c0a59141461051e578063248a9ca31461053157806324d7806c146105545780632b26a9821461056757600080fd5b80630e30428d116103e55780630e30428d14610492578063148bf0a4146104a7578063150b7a02146104c757806315116c20146104f357600080fd5b8063015591f81461041757806301ffc9a7146104325780630952ff54146104555780630c49ccbe1461046a575b600080fd5b61041f610ac9565b6040519081526020015b60405180910390f35b610445610440366004613964565b610b07565b6040519015158152602001610429565b61041f60008051602061423483398151915281565b61047d61047836600461398e565b610b33565b60408051928352602083019190915201610429565b6104a56104a03660046139bb565b610bf5565b005b61041f6104b53660046139e7565b600d6020526000908152604090205481565b6104da6104d5366004613a16565b610ccd565b6040516001600160e01b03199091168152602001610429565b6105066105013660046139e7565b610d57565b6040516001600160a01b039091168152602001610429565b6104a561052c366004613af6565b610d64565b61041f61053f3660046139e7565b60009081526020819052604090206001015490565b610445610562366004613af6565b610de3565b610445610575366004613af6565b610e1b565b61041f610588366004613b13565b610e28565b61041f61059b3660046139e7565b610e48565b6105b36105ae366004613b47565b610e8b565b604080519586526020860194909452928401919091526060830152608082015260a001610429565b6104a56105e9366004613b88565b61133e565b6104a56105fc366004613bb8565b611368565b6104a561060f366004613b88565b6113c7565b60025461044590600160a01b900460ff1681565b6104a561144a565b6104a561063e3660046139e7565b61148e565b6104a5610651366004613bdb565b61189f565b6106696106643660046139e7565b61191e565b6040516104299190613c01565b6104a56106843660046139e7565b611938565b6105067f000000000000000000000000000000000000000000000000000000000000000081565b61041f60135481565b61041f60145481565b6104456106d0366004613af6565b611a79565b61041f60008051602061425483398151915281565b6105067f000000000000000000000000000000000000000000000000000000000000000081565b6104a561071f366004613c45565b611a93565b6104a5611bc1565b6105067f000000000000000000000000000000000000000000000000000000000000000081565b61041f6301e1338081565b6104a5611c05565b61041f60125481565b61041f611c4f565b61041f6107853660046139e7565b600e6020526000908152604090205481565b6105066107a5366004613b13565b611d76565b61041f633b9aca0081565b6104a56107c3366004613cc6565b611d8e565b6104456107d6366004613b88565b611de6565b6104a56107e9366004613af6565b611e0f565b6108696040805160a081018252600080825260208201819052918101829052606081018290526080810191909152506040805160a0810182526003548152600454602082015260055463ffffffff8082169383019390935264010000000081049092166060820152600160401b90910460ff16608082015290565b6040516104299190600060a0820190508251825260208301516020830152604083015163ffffffff8082166040850152806060860151166060850152505060ff608084015116608083015292915050565b6104a56108c83660046139e7565b611e73565b61041f60008051602061427483398151915281565b6104a56108f0366004613b13565b611f22565b6104a5610903366004613b88565b61209f565b610910612136565b6040516104299190613d08565b61041f600081565b61047d6109333660046139e7565b612142565b61041f60115481565b6104a561094f366004613b13565b61215c565b610967610962366004613cc6565b61240f565b6040516104299190613da1565b6104a56109823660046139e7565b612504565b60025461044590600160a81b900460ff1681565b6104a56109a93660046139e7565b612545565b61041f6109bc3660046139e7565b612586565b6104a56109cf366004613af6565b61259d565b600254610506906001600160a01b031681565b61041f6109f53660046139e7565b600c6020526000908152604090205481565b6104a5610a15366004613b88565b612648565b60025461044590600160b01b900460ff1681565b61041f610a3c366004613af6565b600a6020526000908152604090205481565b6104a5610a5c366004613cc6565b61266d565b6104a5610a6f366004613bdb565b6126c5565b6104a5610a82366004613b13565b612752565b6104a56127fb565b6105067f000000000000000000000000000000000000000000000000000000000000000081565b61047d610ac4366004613e03565b612845565b60006301e1338060135442610ade9190613e35565b601254610aeb9190613e4c565b610af59190613e6b565b601454610b029190613e8d565b905090565b6000610b12826128af565b80610b2d5750630a85bd0160e11b6001600160e01b03198316145b92915050565b80356000818152600e602052604081205490918291610b51816128d4565b604051630624e65f60e11b81526001600160a01b037f00000000000000000000000000000000000000000000000000000000000000001690630c49ccbe90610b9d908890600401613eba565b60408051808303816000875af1158015610bbb573d6000803e3d6000fd5b505050506040513d601f19601f82011682018060405250810190610bdf9190613f04565b9094509250610bee818361296b565b5050915091565b610bfd6129d1565b6001600160a01b038216610c2457604051639fabe1c160e01b815260040160405180910390fd5b610c2f6008836129f9565b610c4b5760405162820f3560e61b815260040160405180910390fd5b633b9aca00811115610c7057604051632a9ffab760e21b815260040160405180910390fd5b6001600160a01b0382166000818152600a602090815260409182902084905581519283528201839052339132917fece54836a6012d34707a7966469d002bee4c78384a4ea18c1b5ffba5c8b2327291015b60405180910390a35050565b6000610cd7612a1b565b336001600160a01b037f00000000000000000000000000000000000000000000000000000000000000001614610d2057604051631dd2188d60e31b815260040160405180910390fd5b600082806020019051810190610d369190613f28565b9050610d43858286612a46565b50630a85bd0160e11b90505b949350505050565b6000610b2d600883612ca6565b610d6c6129d1565b6001600160a01b038116610d9357604051639fabe1c160e01b815260040160405180910390fd5b610d9e600882612cb2565b506040516001600160a01b0382168152339032907f2b2d2512e20fc45be02144f309a731d8005b3e32a993572a559447c769a7b6b2906020015b60405180910390a350565b6000610dfd60008051602061425483398151915283611de6565b80610b2d5750610b2d60008051602061423483398151915283611de6565b6000610b2d6008836129f9565b6000610e32611c4f565b9050610e3e8184612752565b610b2d8183611f22565b6000818152600c6020526040812054610e618382612cc7565b6000848152600d6020526040902054610e7a9083613e8d565b610e849190613e8d565b9392505050565b81356000818152600e60205260408120549091829182918291829190610eb0816128d4565b60405163fc6f786560e01b81526001600160a01b037f0000000000000000000000000000000000000000000000000000000000000000169063fc6f786590610efc908c90600401613f41565b60408051808303816000875af1158015610f1a573d6000803e3d6000fd5b505050506040513d601f19601f82011682018060405250810190610f3e9190613f04565b604051630a8d58d560e11b81528a356004820152919550935060009081907f00000000000000000000000000000000000000000000000000000000000000006001600160a01b03169063151ab1aa906024016040805180830381865afa158015610fac573d6000803e3d6000fd5b505050506040513d601f19601f82011682018060405250810190610fd09190613fa2565b91509150816001600160a01b03166323b872dd33308d602001356040518463ffffffff1660e01b815260040161100893929190613fd1565b6020604051808303816000875af1158015611027573d6000803e3d6000fd5b505050506040513d601f19601f8201168201806040525081019061104b919061400a565b50806001600160a01b03166323b872dd33308d604001356040518463ffffffff1660e01b815260040161108093929190613fd1565b6020604051808303816000875af115801561109f573d6000803e3d6000fd5b505050506040513d601f19601f820116820180604052508101906110c3919061400a565b506110f3828b602001357f0000000000000000000000000000000000000000000000000000000000000000612cfb565b611122818b604001357f0000000000000000000000000000000000000000000000000000000000000000612cfb565b6040805163219f5d1760e01b81528b35600482015260208c01356024820152908b0135604482015260608b0135606482015260808b0135608482015260a08b013560a48201527f00000000000000000000000000000000000000000000000000000000000000006001600160a01b03169063219f5d179060c4016060604051808303816000875af11580156111bb573d6000803e3d6000fd5b505050506040513d601f19601f820116820180604052508101906111df9190614025565b6001600160801b039092169a509850965060208a013588101561128b576001600160a01b03821663a9059cbb3361121a8b60208f0135613e35565b6040516001600160e01b031960e085901b1681526001600160a01b03909216600483015260248201526044016020604051808303816000875af1158015611265573d6000803e3d6000fd5b505050506040513d601f19601f82011682018060405250810190611289919061400a565b505b8960400135871015611326576001600160a01b03811663a9059cbb336112b58a60408f0135613e35565b6040516001600160e01b031960e085901b1681526001600160a01b03909216600483015260248201526044016020604051808303816000875af1158015611300573d6000803e3d6000fd5b505050506040513d601f19601f82011682018060405250810190611324919061400a565b505b611330838561296b565b505050509295509295909350565b60008281526020819052604090206001015461135981612de8565b6113638383612df2565b505050565b6113706129d1565b6005805468ff00000000000000001916600160401b60ff841690810291909117909155604051908152339032907f9236c754a2483e5ead2c6f6e37d7a49ce185c01e0a0d12633be03b726ff4071890602001610dd8565b6001600160a01b038116331461143c5760405162461bcd60e51b815260206004820152602f60248201527f416363657373436f6e74726f6c3a2063616e206f6e6c792072656e6f756e636560448201526e103937b632b9903337b91039b2b63360891b60648201526084015b60405180910390fd5b6114468282612e14565b5050565b6114526129d1565b6002805460ff60a81b19169055604051339032907f4bc647b1389eed39d42705e843eb919035ed54c91277e71038dbce67bee26d4b90600090a3565b600061149982610e48565b90506000806114ab8460006001612e36565b50915091508281106114d057604051630879983f60e21b815260040160405180910390fd5b6002546040516331a9108f60e11b8152600481018690526000916001600160a01b031690636352211e90602401602060405180830381865afa15801561151a573d6000803e3d6000fd5b505050506040513d601f19601f8201168201806040525081019061153e919061405c565b6005549091506000906115729061156790640100000000900463ffffffff16633b9aca00613e35565b85633b9aca00612fba565b6000878152600c602052604090205490915080821015611590578091505b6040516323b872dd60e01b81526001600160a01b037f000000000000000000000000000000000000000000000000000000000000000016906323b872dd906115e090339030908790600401613fd1565b6020604051808303816000875af11580156115ff573d6000803e3d6000fd5b505050506040513d601f19601f82011682018060405250810190611623919061400a565b50604051630852cd8d60e31b8152600481018290527f00000000000000000000000000000000000000000000000000000000000000006001600160a01b0316906342966c6890602401600060405180830381600087803b15801561168657600080fd5b505af115801561169a573d6000803e3d6000fd5b5050600554600092506116b9915063ffffffff1687633b9aca00612fba565b6116c38389613e35565b6116cd9190613e8d565b90506116d98284613e35565b8111156116ed576116ea8284613e35565b90505b6001600160a01b037f00000000000000000000000000000000000000000000000000000000000000001663a9059cbb85836117288688613e35565b6117329190613e35565b6040516001600160e01b031960e085901b1681526001600160a01b03909216600483015260248201526044016020604051808303816000875af115801561177d573d6000803e3d6000fd5b505050506040513d601f19601f820116820180604052508101906117a1919061400a565b5060405163a9059cbb60e01b81526001600160a01b037f000000000000000000000000000000000000000000000000000000000000000081166004830152602482018390527f0000000000000000000000000000000000000000000000000000000000000000169063a9059cbb906044016020604051808303816000875af1158015611831573d6000803e3d6000fd5b505050506040513d601f19601f82011682018060405250810190611855919061400a565b50611860883361306c565b60405188815233907f54047e1fbd97c7c3a1208df001f1b5c6c3e64e726907d2f8342f6b3946f4b83f9060200160405180910390a25050505050505050565b6118a76129d1565b633b9aca008163ffffffff1611156118d257604051632a9ffab760e21b815260040160405180910390fd5b6005805463ffffffff191663ffffffff8316908117909155604051908152339032907f6240b6574b3fb0cb4500066a454acec68a122b331a3ff983aac3f080e6bc8fba90602001610dd8565b6000818152600b60205260409020606090610b2d906131b6565b6000818152600e6020526040902054611950816128d4565b6000818152600b6020526040902061196890836131c3565b506040516323b872dd60e01b81526001600160a01b037f000000000000000000000000000000000000000000000000000000000000000016906323b872dd906119b990309033908790600401613fd1565b600060405180830381600087803b1580156119d357600080fd5b505af11580156119e7573d6000803e3d6000fd5b5050505060006119fa8260006001612e36565b50915050611a0782610e48565b811015611a2757604051631d9d79c160e01b815260040160405180910390fd5b6000838152600e6020908152604080832092909255815184815290810185905233917f7203614e0f504976b0818798e50fe583523edfc0a9ee31bfa30fcf095d8e2d2c910160405180910390a2505050565b6000610b2d60008051602061427483398151915283611de6565b600254600160a01b900460ff1615611abe576040516302ed543d60e51b815260040160405180910390fd5b6001600160a01b038316611ae557604051639fabe1c160e01b815260040160405180910390fd5b633b9aca00821115611b0a57604051632a9ffab760e21b815260040160405180910390fd5b611b22600080516020614274833981519152846131cf565b611b3a600080516020614254833981519152846131cf565b611b52600080516020614254833981519152806131d9565b611b786000805160206142348339815191526000805160206142548339815191526131d9565b611b9e6000805160206142748339815191526000805160206142348339815191526131d9565b60129190915542601355600355506002805460ff60a01b1916600160a01b179055565b611bc96129d1565b6002805460ff60b01b19169055604051339032907ff7b1ad987eed99cc5824a2f41a7dfef011daef968e99ccc4be4ad4d09319fd6890600090a3565b611c0d613224565b6002805460ff60a81b1916600160a81b179055604051339032907f0a5f1e15c1e95836bd0cc0786479c594b24191b3410a6c4358387e564ff2c64090600090a3565b6000611c59612a1b565b600254600160b01b900460ff16158015611c7b5750611c796006336129f9565b155b15611c99576040516351caf8cd60e01b815260040160405180910390fd5b601154611ca7906001613e8d565b60118190556000818152600f602052604090204290559050611cc7610ac9565b600082815260106020526040908190209190915560025490516340c10f1960e01b8152336004820152602481018390526001600160a01b03909116906340c10f1990604401600060405180830381600087803b158015611d2657600080fd5b505af1158015611d3a573d6000803e3d6000fd5b50506040518381523392507f1774e23245eedaa4541d7c6aafe9840fbea9a6dc740c21dfbe2ecf3162789cb7915060200160405180910390a290565b6000828152600160205260408120610e849083612ca6565b611d966129d1565b60005b8181101561136357611dd3838383818110611db657611db6614079565b9050602002016020810190611dcb9190613af6565b600690612cb2565b5080611dde8161408f565b915050611d99565b6000918252602082815260408084206001600160a01b0393909316845291905290205460ff1690565b611e176129d1565b611e2260088261325e565b506001600160a01b0381166000818152600a60209081526040808320929092559051918252339132917f3157cfdf2b1e706bac0340bbb0ff011b10ad5240c3636187d723df79232c7b9b9101610dd8565b611e7b6129d1565b633b9aca00811115611ea057604051632a9ffab760e21b815260040160405180910390fd5b600060135442611eb09190613e35565b90506301e1338060125482611ec59190613e4c565b611ecf9190613e6b565b60146000828254611ee09190613e8d565b9091555050601282905542601355604051828152339032907f5bda82a5a2807e9bd9a418db16eadb64dee1d10796e84657bc3c8eb8d74bb36890602001610cc1565b611f2a612a1b565b611f33826128d4565b611f3c82613273565b6040516340c10f1960e01b8152336004820152602481018290527f00000000000000000000000000000000000000000000000000000000000000006001600160a01b0316906340c10f1990604401600060405180830381600087803b158015611fa457600080fd5b505af1158015611fb8573d6000803e3d6000fd5b5050506000838152600c602052604081208054849350909190611fdc908490613e8d565b90915550506000828152600c6020908152604080832054600d9092528220546120059190613e8d565b905060006120168460006001612e36565b509150508181101561203b57604051631d9d79c160e01b815260040160405180910390fd5b60035482111561205e576040516330c84bd760e21b815260040160405180910390fd5b604080518581526020810185905233917f14937bfa593938d0972448553713724cf8834e7e5000ec55929e04f6f015b52e910160405180910390a250505050565b6120a7612a1b565b6120b0826128d4565b6000828152600d6020908152604080832054600c909252909120546120d59190613e8d565b156120f3576040516304aec73b60e01b815260040160405180910390fd5b6120fd828261306c565b60405182815233907f7429155d3efb190893af355db048556e16b4076ce9a162c4276ffbab8b332ef09060200160405180910390a25050565b6060610b0260066131b6565b60008061215183600080612e36565b509094909350915050565b612165826128d4565b61216e82613273565b6000828152600c6020908152604080832054600d909252822054909190612196908390613e8d565b90508083106121a557806121a7565b825b925082828111156122995760006121be8486613e35565b6040516340c10f1960e01b81526001600160a01b037f000000000000000000000000000000000000000000000000000000000000000081166004830152602482018390529192507f0000000000000000000000000000000000000000000000000000000000000000909116906340c10f1990604401600060405180830381600087803b15801561224d57600080fd5b505af1158015612261573d6000803e3d6000fd5b5050506000878152600d602052604081208054849350909190612285908490613e35565b9091555061229590508186613e35565b9450505b6040516323b872dd60e01b81526001600160a01b037f000000000000000000000000000000000000000000000000000000000000000016906323b872dd906122e990339030908690600401613fd1565b6020604051808303816000875af1158015612308573d6000803e3d6000fd5b505050506040513d601f19601f8201168201806040525081019061232c919061400a565b50604051630852cd8d60e31b8152600481018290527f00000000000000000000000000000000000000000000000000000000000000006001600160a01b0316906342966c6890602401600060405180830381600087803b15801561238f57600080fd5b505af11580156123a3573d6000803e3d6000fd5b5050506000868152600c6020526040812080548793509091906123c7908490613e35565b9091555050604080518681526020810183905233917f1039e927a4722f9e4a6efb289f1cfb0808a9ebce5102556eb560d05c827280c691015b60405180910390a25050505050565b60608167ffffffffffffffff81111561242a5761242a613a00565b60405190808252806020026020018201604052801561245d57816020015b60608152602001906001900390816124485790505b50905060005b828110156124fd576124cd3085858481811061248157612481614079565b905060200281019061249391906140a8565b8080601f0160208091040260200160405190810160405280939291908181526020018383808284376000920191909152506132f492505050565b8282815181106124df576124df614079565b602002602001018190525080806124f59061408f565b915050612463565b5092915050565b61250c6129d1565b6003819055604051818152339032907f25ccdec7d43642f282c6c49dcc83a9f1e68c25fcbe9590fcf74cac9977e19a8390602001610dd8565b61254d6129d1565b6004819055604051818152339032907f4895ad247f7476ddb04bd1c1f463a1b94bf3211d1e470561bc57765b2b118b3190602001610dd8565b6000818152600160205260408120610b2d90613319565b6125a56129d1565b6002546001600160a01b0316156125cf57604051633519c31d60e01b815260040160405180910390fd5b6001600160a01b0381166125f657604051639fabe1c160e01b815260040160405180910390fd5b600280546001600160a01b0319166001600160a01b038316908117909155604051908152339032907f83cf2c4d15adf663bcc4a2cf33b693f35c098b15a825083887dcfac79cc50f1a90602001610dd8565b60008281526020819052604090206001015461266381612de8565b6113638383612e14565b6126756129d1565b60005b81811015611363576126b283838381811061269557612695614079565b90506020020160208101906126aa9190613af6565b60069061325e565b50806126bd8161408f565b915050612678565b6126cd6129d1565b633b9aca008163ffffffff1611156126f857604051632a9ffab760e21b815260040160405180910390fd5b6005805467ffffffff00000000191664010000000063ffffffff841690810291909117909155604051908152339032907f6a15323e32e851c85fbfacfcbe04401ffc34be06e2dc104a013ac4947488fd4990602001610dd8565b7f00000000000000000000000000000000000000000000000000000000000000006001600160a01b031663b88d4fde3330848660405160200161279791815260200190565b6040516020818303038152906040526040518563ffffffff1660e01b81526004016127c594939291906140ef565b600060405180830381600087803b1580156127df57600080fd5b505af11580156127f3573d6000803e3d6000fd5b505050505050565b6128036129d1565b6002805460ff60b01b1916600160b01b179055604051339032907fa4fe2cd3643dcb3856aae278083bc54af310a8d7b740e68b1c006f915c860f5990600090a3565b80356000818152600e602052604081205490918291612863816128d4565b60405163fc6f786560e01b81526001600160a01b037f0000000000000000000000000000000000000000000000000000000000000000169063fc6f786590610b9d908890600401613f41565b60006001600160e01b03198216635a05180f60e01b1480610b2d5750610b2d82613323565b6002546040516331a9108f60e11b81526004810183905233916001600160a01b031690636352211e90602401602060405180830381865afa15801561291d573d6000803e3d6000fd5b505050506040513d601f19601f82011682018060405250810190612941919061405c565b6001600160a01b03161461296857604051631dd2188d60e31b815260040160405180910390fd5b50565b60008061297a84846001612e36565b925092505061298884610e48565b8210156129a857604051631d9d79c160e01b815260040160405180910390fd5b6004548110156129cb57604051635a0e910960e11b815260040160405180910390fd5b50505050565b6129da33610de3565b6129f757604051631dd2188d60e31b815260040160405180910390fd5b565b6001600160a01b03811660009081526001830160205260408120541515610e84565b600254600160a81b900460ff16156129f7576040516313d0ff5960e31b815260040160405180910390fd5b600254600160b01b900460ff16158015612a685750612a666006846129f9565b155b15612a86576040516351caf8cd60e01b815260040160405180910390fd5b6000828152600b60205260409020612a9d90613319565b600554600160401b900460ff1611612ac857604051636187c51360e11b815260040160405180910390fd5b6002546040516331a9108f60e11b8152600481018490526000916001600160a01b031690636352211e90602401602060405180830381865afa158015612b12573d6000803e3d6000fd5b505050506040513d601f19601f82011682018060405250810190612b36919061405c565b6001600160a01b031603612b5d57604051630681d31960e51b815260040160405180910390fd5b6040516326a49e3760e01b81526004810182905260009081906001600160a01b037f000000000000000000000000000000000000000000000000000000000000000016906326a49e3790602401606060405180830381865afa158015612bc7573d6000803e3d6000fd5b505050506040513d601f19601f82011682018060405250810190612beb9190614122565b9093509150612bfd90506008826129f9565b612c195760405162820f3560e61b815260040160405180910390fd5b600454821015612c3c57604051635a0e910960e11b815260040160405180910390fd5b6000838152600e60209081526040808320879055868352600b9091529020612c649084613358565b5060408051858152602081018590526001600160a01b038716917ff4d587c98d234ca4d147061e6b5167e7f41ee17f11562a9f0b49570abece859e9101612400565b6000610e848383613364565b6000610e84836001600160a01b03841661338e565b6000828152601060205260408120548190612ce0610ac9565b612cea9190613e35565b9050610d4f8382633b9aca00612fba565b604051636eb1769f60e11b81523060048201526001600160a01b03828116602483015283919085169063dd62ed3e90604401602060405180830381865afa158015612d4a573d6000803e3d6000fd5b505050506040513d601f19601f82011682018060405250810190612d6e9190613f28565b10156113635760405163095ea7b360e01b81526001600160a01b038281166004830152600019602483015284169063095ea7b3906044016020604051808303816000875af1158015612dc4573d6000803e3d6000fd5b505050506040513d601f19601f820116820180604052508101906129cb919061400a565b61296881336133dd565b612dfc8282613436565b60008281526001602052604090206113639082612cb2565b612e1e82826134ba565b6000828152600160205260409020611363908261325e565b6000838152600b60205260408120819081908190612e53906131b6565b905060009350600092506000915060005b8151811015612faf576000828281518110612e8157612e81614079565b6020026020010151905060008060007f00000000000000000000000000000000000000000000000000000000000000006001600160a01b03166326a49e37856040518263ffffffff1660e01b8152600401612ede91815260200190565b606060405180830381865afa158015612efb573d6000803e3d6000fd5b505050506040513d601f19601f82011682018060405250810190612f1f9190614122565b925092509250898015612f30575082155b15612f4e576040516313cbf65960e01b815260040160405180910390fd5b8a8403612f59578196505b6001600160a01b0381166000908152600a6020526040902054612f7c838b613e8d565b9950612f8d8382633b9aca00612fba565b612f97908a613e8d565b9850505050505080612fa89061408f565b9050612e64565b505093509350939050565b6000808060001985870985870292508281108382030391505080600003612ff35760008411612fe857600080fd5b508290049050610e84565b808411612fff57600080fd5b6000848688096000868103871696879004966002600389028118808a02820302808a02820302808a02820302808a02820302808a02820302808a02909103029181900381900460010186841190950394909402919094039290920491909117919091029150509392505050565b6000828152600b60205260408120613083906131b6565b90507f000000000000000000000000000000000000000000000000000000000000000060005b825181101561315b5760008382815181106130c6576130c6614079565b60200260200101519050600e600082815260200190815260200160002060009055826001600160a01b03166323b872dd3087846040518463ffffffff1660e01b815260040161311793929190613fd1565b600060405180830381600087803b15801561313157600080fd5b505af1158015613145573d6000803e3d6000fd5b5050505050806131549061408f565b90506130a9565b506000848152600c60209081526040808320839055600d8252808320839055600b909152812090818161318e8282613932565b50505060009485525050600f6020908152604080852085905560109091528320929092555050565b60606000610e848361351f565b6000610e84838361357b565b6114468282612df2565b600082815260208190526040808220600101805490849055905190918391839186917fbd79b86ffe0ab8e8776151514217cd7cacd52c909f66475c3af44e129f0b00ff9190a4505050565b61322d33610de3565b158015613240575061323e33611a79565b155b156129f757604051631dd2188d60e31b815260040160405180910390fd5b6000610e84836001600160a01b03841661357b565b6000818152600c6020908152604080832054600f909252909120544203613298575050565b6132a28282612cc7565b6000838152600d6020526040812080549091906132c0908490613e8d565b90915550506000828152600f602052604090204290556132de610ac9565b6000928352601060205260409092209190915550565b6060610e8483836040518060600160405280602781526020016142946027913961366e565b6000610b2d825490565b60006001600160e01b03198216637965db0b60e01b1480610b2d57506301ffc9a760e01b6001600160e01b0319831614610b2d565b6000610e84838361338e565b600082600001828154811061337b5761337b614079565b9060005260206000200154905092915050565b60008181526001830160205260408120546133d557508154600181810184556000848152602080822090930184905584548482528286019093526040902091909155610b2d565b506000610b2d565b6133e78282611de6565b611446576133f4816136e6565b6133ff8360206136f8565b604051602001613410929190614162565b60408051601f198184030181529082905262461bcd60e51b8252611433916004016141d7565b6134408282611de6565b611446576000828152602081815260408083206001600160a01b03851684529091529020805460ff191660011790556134763390565b6001600160a01b0316816001600160a01b0316837f2f8788117e7eff1d82e926ec794901d17c78024a50270940304540a733656f0d60405160405180910390a45050565b6134c48282611de6565b15611446576000828152602081815260408083206001600160a01b0385168085529252808320805460ff1916905551339285917ff6391f5c32d9c69d2a47ea670b442974b53935d1edc7fd64eb21e047a839171b9190a45050565b60608160000180548060200260200160405190810160405280929190818152602001828054801561356f57602002820191906000526020600020905b81548152602001906001019080831161355b575b50505050509050919050565b6000818152600183016020526040812054801561366457600061359f600183613e35565b85549091506000906135b390600190613e35565b90508181146136185760008660000182815481106135d3576135d3614079565b90600052602060002001549050808760000184815481106135f6576135f6614079565b6000918252602080832090910192909255918252600188019052604090208390555b8554869080613629576136296141ea565b600190038181906000526020600020016000905590558560010160008681526020019081526020016000206000905560019350505050610b2d565b6000915050610b2d565b6060600080856001600160a01b03168560405161368b9190614200565b600060405180830381855af49150503d80600081146136c6576040519150601f19603f3d011682016040523d82523d6000602084013e6136cb565b606091505b50915091506136dc86838387613894565b9695505050505050565b6060610b2d6001600160a01b03831660145b60606000613707836002613e4c565b613712906002613e8d565b67ffffffffffffffff81111561372a5761372a613a00565b6040519080825280601f01601f191660200182016040528015613754576020820181803683370190505b509050600360fc1b8160008151811061376f5761376f614079565b60200101906001600160f81b031916908160001a905350600f60fb1b8160018151811061379e5761379e614079565b60200101906001600160f81b031916908160001a90535060006137c2846002613e4c565b6137cd906001613e8d565b90505b6001811115613845576f181899199a1a9b1b9c1cb0b131b232b360811b85600f166010811061380157613801614079565b1a60f81b82828151811061381757613817614079565b60200101906001600160f81b031916908160001a90535060049490941c9361383e8161421c565b90506137d0565b508315610e845760405162461bcd60e51b815260206004820181905260248201527f537472696e67733a20686578206c656e67746820696e73756666696369656e746044820152606401611433565b606083156139035782516000036138fc576001600160a01b0385163b6138fc5760405162461bcd60e51b815260206004820152601d60248201527f416464726573733a2063616c6c20746f206e6f6e2d636f6e74726163740000006044820152606401611433565b5081610d4f565b610d4f83838151156139185781518083602001fd5b8060405162461bcd60e51b815260040161143391906141d7565b508054600082559060005260206000209081019061296891905b80821115613960576000815560010161394c565b5090565b60006020828403121561397657600080fd5b81356001600160e01b031981168114610e8457600080fd5b600060a082840312156139a057600080fd5b50919050565b6001600160a01b038116811461296857600080fd5b600080604083850312156139ce57600080fd5b82356139d9816139a6565b946020939093013593505050565b6000602082840312156139f957600080fd5b5035919050565b634e487b7160e01b600052604160045260246000fd5b60008060008060808587031215613a2c57600080fd5b8435613a37816139a6565b93506020850135613a47816139a6565b925060408501359150606085013567ffffffffffffffff80821115613a6b57600080fd5b818701915087601f830112613a7f57600080fd5b813581811115613a9157613a91613a00565b604051601f8201601f19908116603f01168101908382118183101715613ab957613ab9613a00565b816040528281528a6020848701011115613ad257600080fd5b82602086016020830137600060208483010152809550505050505092959194509250565b600060208284031215613b0857600080fd5b8135610e84816139a6565b60008060408385031215613b2657600080fd5b50508035926020909101359150565b6000608082840312156139a057600080fd5b600080828403610140811215613b5c57600080fd5b613b668585613b35565b925060c0607f1982011215613b7a57600080fd5b506080830190509250929050565b60008060408385031215613b9b57600080fd5b823591506020830135613bad816139a6565b809150509250929050565b600060208284031215613bca57600080fd5b813560ff81168114610e8457600080fd5b600060208284031215613bed57600080fd5b813563ffffffff81168114610e8457600080fd5b6020808252825182820181905260009190848201906040850190845b81811015613c3957835183529284019291840191600101613c1d565b50909695505050505050565b600080600060608486031215613c5a57600080fd5b8335613c65816139a6565b95602085013595506040909401359392505050565b60008083601f840112613c8c57600080fd5b50813567ffffffffffffffff811115613ca457600080fd5b6020830191508360208260051b8501011115613cbf57600080fd5b9250929050565b60008060208385031215613cd957600080fd5b823567ffffffffffffffff811115613cf057600080fd5b613cfc85828601613c7a565b90969095509350505050565b6020808252825182820181905260009190848201906040850190845b81811015613c395783516001600160a01b031683529284019291840191600101613d24565b60005b83811015613d64578181015183820152602001613d4c565b838111156129cb5750506000910152565b60008151808452613d8d816020860160208601613d49565b601f01601f19169290920160200192915050565b6000602080830181845280855180835260408601915060408160051b870101925083870160005b82811015613df657603f19888603018452613de4858351613d75565b94509285019290850190600101613dc8565b5092979650505050505050565b600060808284031215613e1557600080fd5b610e848383613b35565b634e487b7160e01b600052601160045260246000fd5b600082821015613e4757613e47613e1f565b500390565b6000816000190483118215151615613e6657613e66613e1f565b500290565b600082613e8857634e487b7160e01b600052601260045260246000fd5b500490565b60008219821115613ea057613ea0613e1f565b500190565b6001600160801b038116811461296857600080fd5b8135815260a081016020830135613ed081613ea5565b6001600160801b03811660208401525060408301356040830152606083013560608301526080830135608083015292915050565b60008060408385031215613f1757600080fd5b505080516020909101519092909150565b600060208284031215613f3a57600080fd5b5051919050565b81358152608081016020830135613f57816139a6565b6001600160a01b031660208301526040830135613f7381613ea5565b6001600160801b039081166040840152606084013590613f9282613ea5565b8082166060850152505092915050565b60008060408385031215613fb557600080fd5b8251613fc0816139a6565b6020840151909250613bad816139a6565b6001600160a01b039384168152919092166020820152604081019190915260600190565b8051801515811461400557600080fd5b919050565b60006020828403121561401c57600080fd5b610e8482613ff5565b60008060006060848603121561403a57600080fd5b835161404581613ea5565b602085015160409095015190969495509392505050565b60006020828403121561406e57600080fd5b8151610e84816139a6565b634e487b7160e01b600052603260045260246000fd5b6000600182016140a1576140a1613e1f565b5060010190565b6000808335601e198436030181126140bf57600080fd5b83018035915067ffffffffffffffff8211156140da57600080fd5b602001915036819003821315613cbf57600080fd5b6001600160a01b03858116825284166020820152604081018390526080606082018190526000906136dc90830184613d75565b60008060006060848603121561413757600080fd5b61414084613ff5565b9250602084015191506040840151614157816139a6565b809150509250925092565b7f416363657373436f6e74726f6c3a206163636f756e742000000000000000000081526000835161419a816017850160208801613d49565b7001034b99036b4b9b9b4b733903937b6329607d1b60179184019182015283516141cb816028840160208801613d49565b01602801949350505050565b602081526000610e846020830184613d75565b634e487b7160e01b600052603160045260246000fd5b60008251614212818460208701613d49565b9190910192915050565b60008161422b5761422b613e1f565b50600019019056fec171260023d22a25a00a2789664c9334017843b831138c8ef03cc8897e5873d7f23ec0bb4210edd5cba85afd05127efcd2fc6a781bfed49188da1081670b22d846a52cf33029de9f84853745a87af28464c80bf0346df1b32e205fc73319f622416464726573733a206c6f772d6c6576656c2064656c65676174652063616c6c206661696c6564a2646970667358221220f062fd73e2eb1892cbc880b7db7e8233662f8f07917bd0b0e23405c44f4af8d064736f6c634300080f0033","linkReferences":{}},"methodIdentifiers":{"ADMIN_DELEGATE_ROLE()":"0952ff54","ADMIN_ROLE()":"75b238fc","DEFAULT_ADMIN_ROLE()":"a217fddf","DENOMINATOR()":"918f8674","OPERATOR()":"983d2737","YEAR()":"83914540","addDepositorsToAllowlist(address[])":"91b7ab47","burnDebt(uint256,uint256)":"a8406ea3","calculateVaultCollateral(uint256)":"a39e4f6d","changeLiquidationFee(uint32)":"5412abbc","changeLiquidationPremium(uint32)":"e9f43bfe","changeMaxDebtPerVault(uint256)":"ad88de45","changeMaxNftsPerVault(uint8)":"34ccc93b","changeMinSingleNftCollateral(uint256)":"bf183d54","closeVault(uint256,address)":"9cd16198","collect((uint256,address,uint128,uint128))":"fc6f7865","collectAndIncreaseAmount((uint256,address,uint128,uint128),(uint256,uint256,uint256,uint256,uint256,uint256))":"2e8dc029","decreaseLiquidity((uint256,uint128,uint256,uint256,uint256))":"0c49ccbe","depositCollateral(uint256,uint256)":"ece13732","depositorsAllowlist()":"a09eb0e7","getOverallDebt(uint256)":"2d922369","getRoleAdmin(bytes32)":"248a9ca3","getRoleMember(bytes32,uint256)":"9010d07c","getRoleMemberCount(bytes32)":"ca15c873","globalStabilisationFeePerUSDD()":"015591f8","globalStabilisationFeePerUSDSnapshotD()":"6660bdaf","globalStabilisationFeePerUSDSnapshotTimestamp()":"624aa232","grantRole(bytes32,address)":"2f2ff15d","hasRole(bytes32,address)":"91d14854","initialize(address,uint256,uint256)":"7a1ac61e","isAdmin(address)":"24d7806c","isInitialized()":"392e53cd","isOperator(address)":"6d70f7ae","isPaused()":"b187bd26","isPoolWhitelisted(address)":"2b26a982","isPublic()":"dc9a1535","liquidate(uint256)":"415f1240","liquidationThresholdD(address)":"e163fb02","makePrivate()":"7c84b40c","makePublic()":"fc018c05","mintDebt(uint256,uint256)":"9b52d8c8","mintDebtFromScratch(uint256,uint256)":"2c357f7f","multicall(bytes[])":"ac9650d8","onERC721Received(address,address,uint256,bytes)":"150b7a02","openVault()":"86f54712","oracle()":"7dc0d1d0","pause()":"8456cb59","positionManager()":"791b98bc","protocolParams()":"93aab9d5","removeDepositorsFromAllowlist(address[])":"e273d23e","renounceRole(bytes32,address)":"36568abe","revokeRole(bytes32,address)":"d547741f","revokeWhitelistedPool(address)":"92c796eb","setLiquidationThreshold(address,uint256)":"0e30428d","setVaultRegistry(address)":"cb91dd7b","setWhitelistedPool(address)":"1c0a5914","stabilisationFeeRateD()":"84821786","stabilisationFeeVaultSnapshot(uint256)":"148bf0a4","supportsInterface(bytes4)":"01ffc9a7","token()":"fc0c546a","treasury()":"61d027b3","unpause()":"3f4ba83a","updateStabilisationFeeRate(uint256)":"94bf512d","vaultCount()":"a7c6a100","vaultDebt(uint256)":"d310f49b","vaultIdByNft(uint256)":"89ea841a","vaultNftsById(uint256)":"5d2bb997","vaultRegistry()":"cdd7b38a","whitelistedPool(uint256)":"15116c20","withdrawCollateral(uint256)":"6112fe2e"},"id":109}